:020000040800F2
:10000000A8A90020210300083B150008F5140008EA
:1000100037150008C1060008FB3500080000000085
:10002000000000000000000000000000690200085D
:100030003912000800000000BD0200084518000841
:100040003B0300083B0300083B0300083B03000898
:100050003B0300083B0300083B0300083B03000888
:100060003B0300083B0300083B0300083B03000878
:100070003B0300083B0300083B0300083B03000868
:100080003B0300083B0300083B0300083B03000858
:100090003B0300083B0300083B0300083B12000839
:1000A0003B0300083B0300083B0300083B03000838
:1000B0003B0300083B0300083B0300083B03000828
:1000C0003B0300083B0300083B0300083B03000818
:1000D0003B030008BD1800083B0300083B03000871
:1000E0003B0300083B0300083B0300083B030008F8
:1000F0003B0300083B0300083B0300083B030008E8
:100100003B0300083B0300083B0300083B030008D7
:100110003B0300083B0300083B0300083B030008C7
:100120003B0300083B0300083B0300083B030008B7
:100130003B0300083B0300083B0300083B030008A7
:100140003B0300083B0300083B030008C9150008F7
:100150003B0300083B030008411100083B03000873
:100160003B0300083B0300083B0300083B03000877
:100170003B0300083B0300083B0300083B03000867
:100180003B0300083B03000800F002F800F05CF8B5
:100190000AA090E8000C82448344AAF10107DA45E2
:1001A00001D100F051F8AFF2090EBAE80F0013F0D8
:1001B000010F18BFFB1A43F001031847D485000054
:1001C000F48500000A444FF0000C10F8013B13F0D6
:1001D000070408BF10F8014B1D1108BF10F8015BA0
:1001E000641E05D010F8016B641E01F8016BF9D193
:1001F00013F0080F1EBF10F8014BAD1C0C1B09D1EA
:100200006D1E58BF01F801CBFAD505E014F8016B5B
:1002100001F8016B6D1EF9D59142D6D370470000ED
:100220000023002400250026103A28BF78C1FBD8FF
:10023000520728BF30C148BF0B6070471FB508F098
:10024000F1F91FBD10B510BD00F004FA1146FFF71B
:10025000F5FF05F0AFFB00F022FA03B4FFF7F2FF61
:1002600003BC00F027FA00002A4B19680868B0E8C0
:10027000F04F80F30988BFF36F8F4FF0000080F3D9
:10028000118870470000000006480068006880F38D
:10029000088862B661B6BFF34F8FBFF36F8F00DF80
:1002A00000BF00BF08ED00E0DFF80C00016841F47A
:1002B00070010160704700BF88ED00E0EFF3098036
:1002C000BFF36F8F134B1A681EF0100F08BF20ED9D
:1002D000108A20E9F04F106008B44FF0500080F30E
:1002E0001188BFF34F8FBFF36F8F07F075FC4FF08E
:1002F000000080F3118808BC19680868B0E8F04F66
:100300001EF0100F08BFB0EC108A80F30988BFF30D
:100310006F8F704720020020EFF3058070470000C8
:100320000948804709480047FEE7FEE7FEE7FEE789
:10033000FEE7FEE7FEE7FEE7FEE7FEE704480549C5
:10034000054A064B7047000055180008890100084F
:10035000A8A30020A8A90020A8A50020A8A50020E7
:1003600010B54C1084EA530404D54042C1F1000199
:1003700038BF491E1B4204D55242C3F1000338BFA7
:100380005B1E00F0BAF814F0804F04D04042C1F177
:10039000000138BF491E14F0004F04D05242C3F18F
:1003A000000338BF5B1E10BD032A40F2308010F0FE
:1003B000030C00F0158011F8013BBCF1020F624400
:1003C00098BF11F801CB00F8013B38BF11F8013B91
:1003D000A2F1040298BF00F801CB38BF00F8013B3E
:1003E00011F0030300F02580083AC0F0088051F8AE
:1003F000043B083A51F804CBA0E80810F5E7121DB9
:100400005CBF51F8043B40F8043BAFF30080D207D7
:1004100024BF11F8013B11F801CB48BF11F8012BA3
:1004200024BF00F8013B00F801CB48BF00F8012BC6
:10043000704710B5203AC0F00B80B1E81850203A50
:10044000A0E81850B1E81850A0E81850BFF4F5AF74
:100450005FEA027C24BFB1E81850A0E8185044BFFE
:1004600018C918C0BDE810405FEA827C24BF51F86B
:10047000043B40F8043B08BF7047D20728BF31F85F
:10048000023B48BF11F8012B28BF20F8023B48BFB0
:1004900000F8012B704702F0FF0343EA032242EA0F
:1004A000024200F0AEB84FF0000200B51346944689
:1004B0009646203922BFA0E80C50A0E80C50B1F1BC
:1004C0002001BFF4F7AF090728BFA0E80C5048BFD0
:1004D0000CC05DF804EB890028BF40F8042B08BF6E
:1004E000704748BF20F8022B11F0804F18BF00F86A
:1004F000012B704770477047704753EA020C00F0B9
:1005000069802DE9F04B4FF00006002B1FBFB3FAB6
:1005100083F503FA05F424FA05F65E4012BF16438C
:10052000B2FA82F502FA05F4C5F120051EBF22FADF
:1005300005FC44EA0C04203556EA044C4FEA144406
:1005400018BF641C4FF000084FF00009904271EB97
:10055000030C39D3002919BFB1FA81F701FA07F664
:10056000B0FA80F700FA07F6C7F120071EBF20FA9D
:1005700007FC46EA0C062037B6FBF4FCA7EB0507A0
:10058000103F07F01F0BCBF120060CFA0BFB2CFAE7
:1005900006F644BFB3460026202FA4BF5E464FF0A8
:1005A000000B5BEA060C08BF4FF0010B19EB0B09BF
:1005B000ABFB027C48EB0608C01B06FB02CC0BFB26
:1005C00003CC71EB0C01C1E70B460246414648469D
:1005D000BDE8F08B13B54FF000004FF00001AFF312
:1005E0000080BDE81C40704710B500F02BF8006893
:1005F00010BD10B5044600F025F8046010BD4FF0A2
:1006000000020429C0F0128010F0030C3FF44DAF3B
:10061000CCF1040CBCF1020F18BF00F8012BA8BFED
:1006200020F8022BA1EB0C01FFF73FBF5FEAC17C72
:1006300024BF00F8012B00F8012B48BF00F8012B64
:10064000704700000048704744A3002000487047EE
:1006500044A300207546FFF7F9FFAE460500694642
:10066000534620F00700854618B020B5FFF766FE18
:10067000BDE820404FF000064FF000074FF00008A3
:100680004FF0000B21F00701AC46ACE8C009ACE824
:10069000C009ACE8C009ACE8C0098D46704710B588
:1006A0000446AFF300802046BDE81040FFF7D5BDFB
:1006B0007047000001491820ABBEFEE7260002008B
:1006C00000BFFEE770B506460C4604F080008028A7
:1006D00008D104F07F0000EB800106F58E7000EB7E
:1006E000C10507E004F07F0000EB800106F55D70B6
:1006F00000EBC10504F07F00287004F08000C00901
:1007000068702946304602F030FC002070BD70B59C
:1007100006460C4604F08000802808D104F07F00D3
:1007200000EB800106F58E7000EBC10505E004EBDF
:10073000840106F55D7000EBC1050020A87004F08F
:100740007F002870C4F3C01068702946304602F05C
:10075000E4FB002070BD2DE9F04106460D469046B1
:100760001F4605F08000802808D105F07F0000EBCF
:10077000800106F58E7000EBC10407E005F07F00F4
:1007800000EB800106F55D7000EBC10405F07F0011
:10079000207005F08000C0096070C4F80880E77020
:1007A000607808B12078E080022F01D1002020710C
:1007B0002146304602F065FB0020BDE8F0812DE9BE
:1007C000F04105460E461746984606F07F0000EBBE
:1007D000800105F55D7000EBC104E760C4F814808A
:1007E0000020A061607006F07F002070E87801288A
:1007F00000D12761207820B92146284602F065FA09
:1008000003E02146284602F011FC0020BDE8F081FB
:1008100008B500220092009A61F30A120092026960
:100820001268009B1A4303691A6008BD70B506463A
:100830000C4604F08000802808D104F07F0000EB13
:10084000800106F58E7000EBC10505E004EB840124
:1008500006F55D7000EBC1050120A87004F07F0073
:100860002870C4F3C01068702946304602F0ACFB13
:10087000002070BD2DE9F04107460D46164698460A
:1008800005F07F0000EB800107F58E7000EBC104DE
:100890000120607005F07F002070E6602661002076
:1008A000A061C4F81480207820B92146384602F0AF
:1008B0000CFA03E02146384602F0B8FB0020BDE800
:1008C000F081000030B587B00546594C284602F04B
:1008D000C2F901A800F0B0FE029CE868C06805906B
:1008E000059820F4705005900598E968C86028467E
:1008F00002F064FD03280BD10020A8704FF40070B3
:10090000A880059820F4705000F5105005907EE006
:100910000120A8704020A8804648844209D3464858
:10092000844206D2059820F4705000F5605005907E
:100930006DE04148844209D34048844206D205987C
:1009400020F4705000F55050059060E03B48844220
:1009500009D33B48844206D2059820F4705000F534
:100960004050059053E03648844209D335488442CC
:1009700006D2059820F4705000F53050059046E0FE
:100980003048844209D33048844206D2059820F486
:10099000705000F52050059039E02B48844209D36F
:1009A0002A48844206D2059820F4705000F5105071
:1009B00005902CE02548844209D32548844206D27C
:1009C000059820F4705000F5005005901FE0204875
:1009D000844209D31F48844206D2059820F47050FF
:1009E00000F5E050059012E01A48844209D31A48F5
:1009F000844206D2059820F4705000F5C05005904E
:100A000005E0059820F4705000F5A0500590059879
:100A1000E968C86000200690069820F4005000F5B0
:100A2000005006900698E9684861012007B030BD83
:100A3000007A030AC0E1E4000024F400E0EC0401C1
:100A400000C31801002D310140A44C0100366E0195
:100A500040E2950180C3C90160600B02F8B505460C
:100A6000002400200090284602F0E9FC064681E0C0
:100A700006F0010000287BD0E1B2284600F0F6FA2B
:100A80000090009800F0010030B3012000FA04F754
:100A90002869406BB843296948630020009000989A
:100AA00020F00100401C009005F1180050F82400CF
:100AB00000998160E1B23248006842682846904758
:100AC000E878012808D13CB940F21110405D0428B3
:100AD00002D1284602F0A4F90098C0F3C00060B12A
:100AE00000200090009820F008000830009005F1E8
:100AF000180050F82400009981600098C0F300109D
:100B000060B100200090009820F01000103000909C
:100B100005F1180050F82400009981600098C0F396
:100B2000801060B100200090009820F0400040301C
:100B3000009005F1180050F8240000998160009899
:100B4000C0F3400060B100200090009820F0020047
:100B5000801C009005F1180050F824000099816075
:100B60000098C0F3C01018B12146284600F092FA50
:100B7000641C7608002E7FF47BAF0120F8BD0000D6
:100B8000D80000207CB504460025002001902046B6
:100B900002F05DFC06466FE006F00100002869D017
:100BA000E9B2204602F05BFC0190019800F00100E0
:100BB000C8B300200190019820F00100401C019072
:100BC00004F1540050F8250001998160E078012873
:100BD00017D104F1540050F825000069009005EB8E
:100BE000850104F55D7000EBC10080680099C1F3D8
:100BF0001201411A05EB850204F55D7000EBC2009D
:100C00008161E9B21E480068026820469047E0789A
:100C1000012808D13DB940F21110005D052802D12C
:100C2000204602F0FDF80198C0F3400060B10020BA
:100C30000190019820F00200801C019004F1540002
:100C400050F82500019981600198C0F3C00088B177
:100C50000B48006881682046884700200190019871
:100C600020F008000830019004F1540050F82500ED
:100C7000019981606D1C7608002E8DD101207CBD0C
:100C8000D80000203EB50446A07A78B1D4F80C0113
:100C900000680090009820F002000090009820F07A
:100CA000010000900099D4F80C010160002001902F
:100CB000019820F00100401C0190206940680199D2
:100CC000884321694860094800688169204688474F
:100CD00000200290029820F0004000F100400290B5
:100CE0000298E168486101203EBD0000D800002064
:100CF0007CB5044600200190019820F010001030CF
:100D00000190E068806901998843E1688861E06842
:100D1000006A0090009800F00F0000EB800104F5DD
:100D20005D7000EBC1050098C0F3434007282DD249
:100D3000DFE800F02C04051D1E2C1F0027E00098A2
:100D4000C0F30A1090B10098C0F30A122046E96877
:100D500002F08FFBE8680099C1F30A110844E860CB
:100D6000A8690099C1F30A110844A8610FE00EE0D8
:100D70000DE0082204F2CC51204602F07AFBA8696B
:100D80000099C1F30A110844A86100E000BF00BF48
:100D9000E068806901990843E168886101207CBDB1
:100DA00038B5044608480068C168204688470020D6
:100DB0000090009820F00800083000900098E1684A
:100DC0004861012038BD0000D80000201FB504464E
:100DD000002000904FF48970005D00902348006867
:100DE000416920468847206980680190002003906F
:100DF000039820F4006000F5006003900398E16818
:100E00004861A07A70B3019800F0010050B340F23D
:100E10001510005D012825D19DF80000032821D17F
:100E200000200290029820F00100401C0290D4F8AB
:100E30000C01006802990843D4F80C11086002986C
:100E400020F00200801C0290D4F80C010068029986
:100E50000843D4F80C1108600548006840F006000B
:100E600003490860012004B010BD0000D800002034
:100E700010ED00E030B587B00446002002900690E7
:100E80000590049003900190029820F00100401C0E
:100E900002902069406802998843216948600021D6
:100EA000204602F061FA00250BE0FF2104F1180052
:100EB00050F82500816004F1540050F8250081604D
:100EC0006D1C6078A842F0D84FF0FF312069816135
:100ED00006986FF30F00401C0690069880B200F54C
:100EE0008030069006992069C161059820F00800BD
:100EF00008300590059820F00100401C05900598E9
:100F000020F00200801C0590059920694161049839
:100F100020F00100401C0490049820F008000830E4
:100F20000490049820F00200801C04900499206929
:100F30000161206900680390039820F4FE6003902B
:100F4000039920690160204601F06AFF00200190AA
:100F5000019820F4805000F5805001900198E168DC
:100F6000486104480068016920468847012007B0AD
:100F700030BD0000D80000202DE9F04106460F46A4
:100F80003946304602F08AFA01214FF489708155C2
:100F90000021801C8155002511E005EB850106F537
:100FA0008E7000EBC104012060702570E580002088
:100FB000E0704020A0600020E06060616D1C7078EF
:100FC000A842EAD8002510E005EB850106F55D7022
:100FD00000EBC104002060702570E580E0704020C7
:100FE000A0600020E06060616D1C7078A842EBD8C2
:100FF000304601F01FFE304601F04AFC0021304629
:1010000002F0B4FA304601F0D6FC304602F074F932
:10101000BDE8F08138B5044600200090074800681C
:10102000C16920468847009820F4801000F58010A0
:1010300000900098E1684861012038BDD800002088
:1010400038B504460020009007480068016A204631
:101050008847009820F4001000F5001000900098D8
:10106000E1684861012038BDD800002030B5024653
:1010700015692B6915696C6B24FA01F505F00105FA
:1010800043EAC51302F1180555F82150AD6805EA89
:10109000030030BD2DE9F84306460F460025002029
:1010A000009007EB870106F58E7000EBC104D4E9D0
:1010B0000501451AA068A84200D2A568E81C4FEABD
:1010C000900806F1180050F827008069009029E088
:1010D000D4E90501451AA068A84200D2A568E81C19
:1010E0004FEA9008ABB2FAB23046E16802F065FA16
:1010F000E0682844E060A0692844A06106F1180077
:1011000050F8270080690090D4E90501884209D190
:101110002178012000FA01F93069406B20EA0900CA
:1011200031694863009880B2404506D9D4E905107A
:10113000884202D260690028CAD10120BDE8F88344
:1011400010B503F083FF10BD0246094B9A4201D24D
:10115000084801E00648103801F000531BB1064B67
:101160000B40C36002E0044B0B40836070470000FB
:1011700010640240006002407D0F7D0F21B10268C3
:1011800042F00102026003E0026822F00102026004
:101190007047014600200A6802F001020AB10120EE
:1011A00000E00020704710B501F080034BB122B180
:1011B000436943F08003436103E0436923F0800304
:1011C000436180290BD02AB1036801F01E04234338
:1011D000036004E0036801F01E04A343036010BD34
:1011E00010B500220268134B1A40CC680B682343E9
:1011F0004C6923438C692343CC6923430C6A234302
:101200004C6A23438C6A23434C6B23438C6B2343EC
:101210001A430260426922F00702D1E90B342343EA
:101220001A4342610B6943604B6883608B68C360FB
:1012300010BD00003F801CF0704710B5202000F06A
:101240000FF8012804D1202000F004F805F076FB07
:1012500010BD00000149086070470000143C0140C7
:1012600001460020034A12680A400AB1012000E04A
:1012700000207047143C0140002123498279002A54
:101280003AD00A46126803689A430B461A600A1D50
:10129000126803689A430B1D1A60027911440A68A8
:1012A00003681A430A60184A0832126803689A43AE
:1012B000154B08331A601A1D126803689A43124BC3
:1012C0000C331A604279102A0ED11A1F1268036873
:1012D0001A430D4B08331A601A1D126803681A432B
:1012E000094B0C331A600DE00749427911440A6832
:1012F00003681A430A6005E0027911440A6803682A
:101300009A430A6070470000003C0140F0B50A466D
:1013100000210023002400BF3DE0012505FA01F370
:10132000156805EA03049C4234D105684F00032682
:10133000BE40B543056015794E00B540066835439B
:1013400005601579012D02D01579022D16D1856819
:101350004F000326BE40B543856055794E00B54029
:10136000866835438560456801268E40B5434560F3
:10137000456896798E40B6B235434560C5684F00E2
:101380000326BE40B543C560D5794E00B540C6685A
:101390003543C560491C1029BFD3F0BDF0B500230B
:1013A00000244D07ED0E02FA05F3CE1000F12005E2
:1013B00055F826504E07F70E0F26BE40B543CF1006
:1013C00000F1200646F82750CE1000F1200555F810
:1013D000265045EA0304CE1000F1200545F82640CA
:1013E000F0BD000070B50A480468001D0568001DC6
:1013F0000668344454B108220649204600F07CF8BF
:10140000042204491031284600F076F870BD00002F
:10141000107AFF1FE601002070B5064630480078BC
:1014200000285BD12F480068B0F5007F02D1002072
:101430002C4908602B4800682B490968884203D171
:1014400000202749087070BD2648006826490968B1
:10145000884206D923480068C0F500702349086017
:1014600006E0214800681F490968401A1F490860C2
:101470001E480068402811D91A48008885B24024C7
:10148000184800684030174908601848006840381C
:101490001649086001201249087018E011480088B8
:1014A00085B21248008884B20E4800680F49096866
:1014B00008440C49086000200C490860402C03D106
:1014C00002200749087002E0012005490870084819
:1014D0004219234681213046FFF7CCF900BFB2E71D
:1014E00004010020FC000020F80000200001002082
:1014F0002B1E002000BFFEE730B50B46002100BFC9
:1015000016E00A24B4EB107F05D9302404EB1074E4
:1015100003F8114005E0412404EB10740A3C03F881
:101520001140000100254C00641C1D554C1CE1B20B
:101530009142E6DB30BD00BFFEE7704770B5002189
:1015400000230F22C4781CB3174C246804F4E06411
:10155000C4F5E064C4F30721C1F10404E3B20A4115
:1015600044789C40E1B28478144021430C07210E5A
:101570000E4C05786155047804F01F050124AC4039
:1015800005786D11AD0005F1E025C5F8004109E0D1
:10159000047804F01F050124AC40054D067876114F
:1015A00045F8264070BD00000CED00E000E400E0CE
:1015B00080E100E002490143024A116070470000E7
:1015C0000000FA050CED00E010B5024800F01CFD2B
:1015D00010BD00002C20002029B1064A12680243E9
:1015E000044B1A6004E0034A12688243014B1A60FC
:1015F000704700003038024029B1064A12680243A1
:10160000044B1A6004E0034A12688243014B1A60DB
:10161000704700003438024029B1064A126802437C
:10162000044B1A6004E0034A12688243014B1A60BB
:101630007047000044380240F0B500210022002429
:10164000022500260223324F3F6807F00C0121B12A
:10165000042905D0082937D105E02E4F076036E070
:101660002C4F076033E02A4F3F1F3F68C7F3805677
:10167000274F3F1F3F6807F03F036EB1254FB7FB71
:10168000F3F7DFF88CC0ACF1040CDCF800C0CCF34D
:10169000881C07FB0CF40CE01E4FB7FBF3F7DFF8D8
:1016A00070C0ACF1040CDCF800C0CCF3881C07FB64
:1016B0000CF4174F3F1F3F68C7F301477F1C7D00A5
:1016C000B4FBF5F7076002E0124F076000BF00BFF0
:1016D0000F4F3F6807F0F00109090F4F7A5C076868
:1016E000D74047600A4F3F6807F4E051890A0A4F24
:1016F0007A5C4768D7408760054F3F6807F46041D0
:10170000490B054F7A5C4768D740C760F0BD0000C1
:10171000083802400024F4001800002030B50022F0
:101720008B071C0F0F2303FA04F20B4B8C1053F89A
:1017300024309343084C8D1044F8253023468C10F8
:1017400053F824308C07240F00FA04F42343024C8E
:101750008D1044F8253030BD083801400CB500200C
:10176000019000903348006840F4803031490860AF
:1017700000BF3048006800F4003000900198401C21
:101780000190009818B90198B0F5A04FF1D12948FF
:10179000006800F4003010B10120009001E000204A
:1017A00000900098012844D122484030006840F061
:1017B00080502049403108601F48006840F4404094
:1017C0001D4908601B48083000681A490831086044
:1017D0000846006808600846006840F480500860C9
:1017E0001648091F0860081F006840F08070091F34
:1017F000086000BF0F48006800F000700028F9D0B2
:1018000040F202700E4908600A480830006820F073
:1018100003000849083108600846006840F00200EB
:10182000086000BF03480830006800F00C0008287A
:10183000F8D10CBD00380240007000401054410740
:10184000003C024010B506F0CFFC012801D006F0A4
:1018500017FA10BD10B51548006840F47000134920
:1018600008601348006840F001001149086000203A
:101870000F49083108600E4800680E4908400C49BD
:1018800008600D48091D0860081F006820F48020CA
:10189000091F0860002006490C310860FFF75EFF51
:1018A0004FF0006001498039086010BD88ED00E00C
:1018B00000380240FFFFF6FE1030002410B503F0A0
:1018C0003DFC10BD01F40072B2F5007F00D100BFF5
:1018D000CA430280704710B50022002340F66A1404
:1018E000A14200D100BF0A1201249440A3B2DC43FC
:1018F000048010BD21B1828942F40052828104E04B
:1019000082894DF6FF731A40828170471AB1838A2B
:101910000B43838202E0838A8B438382704770B5D6
:101920000246002400230025002040F66A16B1423A
:1019300000D100BFC1F3421501F01F03012606FAD2
:1019400003F3012D02D19689334006E0022D02D126
:10195000168A334001E0968A33400C12012606FABB
:1019600004F41688344013B10CB1012000E00020CB
:1019700070BDF0B50346002400260025002040F687
:101980006A17B94200D100BF1846C1F3421401F0F2
:101990001F06012707FA06F5012C01D10C3004E0DF
:1019A000022C01D1103000E014301AB107682F4327
:1019B000076002E00768AF430760F0BD2DE9FF470D
:1019C00005460E460024A14600BFA046B08900B1DE
:1019D00000BF2C8A24F44054F08804432C82AC8944
:1019E00041F20C608443B08831890843718908430F
:1019F0000443AC81AC8A24F44074B0890443AC82C3
:101A00006846FFF719FE2048854202D01F488542EC
:101A100002D1DDF80C9001E0DDF80890A88900F40F
:101A2000004040B109EBC90000EB091031684900E2
:101A3000B0FBF1F707E009EBC90000EB09103168D2
:101A40008900B0FBF1F76420B7FBF0F00401200936
:101A5000642101FB1078A88900F4004040B13220D5
:101A600000EBC800B0FBF1F000F00700044308E011
:101A7000322000EB08106421B0FBF1F000F00F0001
:101A800004432C81BDE8FF87001001400014014091
:101A900001468888C0F308007047C1F308028280BD
:101AA000704770B504460D46D4F8E40529464268EF
:101AB00020469047002070BD70B504460D464FF497
:101AC0008970005D022802D0032812D100E000BF17
:101AD000688801280CD100214FF48C700151D4F892
:101AE000E4052946826820469047204600F075F8B4
:101AF00004E02946204600F021F800BF00BF70BD79
:101B00002DE9F04106460C46154600272B46224695
:101B100000213046FEF753FE3846BDE8F0812DE93E
:101B2000F04106460C46154600272B46224600216A
:101B30003046FEF79FFE3846BDE8F08170B504469A
:101B40000D4680212046FEF771FE00212046FEF75B
:101B50006DFE204601F064F970BD2DE9F0410446A8
:101B60000E4615460027C4F89453C4F89053032139
:101B700040F2111001552B46324600212046FEF757
:101B80001EFE3846BDE8F08170B5044600250521EB
:101B900040F21110015500231A4619462046FEF75F
:101BA0000EFE204601F03CF9284670BD2DE9F041BB
:101BB00004460E4615460027C4F83C51C4F8385177
:101BC000022140F2111001552B46324600212046D9
:101BD000FEF750FE3846BDE8F08170B5044600259A
:101BE000042140F21110015500231A4619462046DF
:101BF000FEF740FE204601F013F9284670BD70B58F
:101C000005460E46002E5DD105F58E7440F211108A
:101C1000405D022849D1A168E069884217D9A168CE
:101C2000E069401AE061E878012803D1D4E90210A4
:101C30000844E060A08B82B22846E168FFF76FFF9E
:101C400000231A4619462846FEF7B9FD2DE0A16883
:101C5000206AB0FBF1F201FB1200A8B9A168206A6A
:101C6000884211D3D4E9080188420DD200221146DE
:101C70002846FFF754FF0020606200231A461946E9
:101C80002846FEF79CFD10E0D5F8E405C06848B191
:101C90004FF48970405D032804D1D5F8E405C1688C
:101CA000284688472846FFF76FFF4FF48B70405D4A
:101CB000012816D1284600F063FA00214FF48B70FA
:101CC00041550EE0D5F8E405406950B14FF48970F4
:101CD000405D032805D1D5F8E40531464269284620
:101CE0009047002070BD70B505460E46A6BB05F5B1
:101CF0005D7440F21110405D03283DD1A168E06998
:101D0000884217D9A168E069401AE061E8780128A3
:101D100003D1D4E902100844E060A368E069984266
:101D200001D2E06900E0A06882B22846E168FFF7CE
:101D3000E7FE21E0D5F8E405006948B14FF4897069
:101D4000405D032804D1D5F8E40501692846884799
:101D50002846FFF742FF0FE0FFE7D5F8E40580696A
:101D600050B14FF48970405D032805D1D5F8E405E2
:101D70003146826928469047002070BD0146002008
:101D80007047000070B504460D46E888012804D06D
:101D900029462046FFF7D2FE1AE04FF48970005D15
:101DA000022802D003280DD105E00122094920466E
:101DB000FFF7FCFE0BE0012204F588712046FFF7D7
:101DC000F5FE04E029462046FFF7B8FE00BF00BF3D
:101DD00070BD0000E0000020F8B504460E46F08813
:101DE000009070880012082862D2DFE800F06104D9
:101DF0000C186161575CA078D4F8EC150A68694644
:101E00009047054659E0A078D4F8E4158A6A6946F7
:101E10009047054602216970C4F8F0554DE0B0784E
:101E2000062834D2DFE800F0030B131B232BA07825
:101E3000D4F8EC154A686946904705462CE0A0782E
:101E4000D4F8EC158A6869469047054624E0A078E6
:101E5000D4F8EC15CA686946904705461CE0A0789E
:101E6000D4F8EC150A6969469047054614E0A07855
:101E7000D4F8EC154A696946904705460CE0A0780D
:101E8000D4F8EC158A6969469047054604E0314666
:101E90002046FFF753FEF8BD00BF0EE03146204656
:101EA000FFF74CFEF7E731462046FFF747FEF2E723
:101EB00031462046FFF742FEEDE700BFBDF80000C7
:101EC00088B1F08878B1F088BDF80010884202DD52
:101ED000BDF8000000E0F0880090BDF80020294621
:101EE0002046FFF763FE00BFD5E70146002002E071
:101EF000421CD0B2491C0A78002AF9D17047000070
:101F000070B504460D464FF48970005D022802D07A
:101F1000032813D100E000BF01200C4908604FF4F2
:101F20008C70005920B10846006840F0020008603B
:101F3000022206492046FFF739FE04E029462046E2
:101F4000FFF7FCFD00BF00BF70BD0000E4000020F3
:101F50002DE9F04104460D4617460026FCB1204607
:101F6000FFF7C3FF022101EB400038803A7830468A
:101F7000711CCEB22A5403223046711CCEB22A54B0
:101F80000AE014F8012B3046711CCEB22A5400220C
:101F90003046711CCEB22A5420780028F1D1BDE819
:101FA000F0812DE9F04104460F4615461E46DDF846
:101FB0001880204600F026FC2046FFF7DFFEC4F81C
:101FC000E465C4F8E885C4F8EC5539462046FEF7C8
:101FD000D3FFD4F8E81508688047204600F000FCDD
:101FE000BDE8F08110B50446D4F8E405016A204646
:101FF0008847002010BD10B50446D4F8E405416AB6
:1020000020468847002010BD7CB5054600242846A0
:1020100001F002FA002865D0284601F008FA019084
:10202000019808B900207CBD0198C0F3C04018B1E8
:102030002846FEF7A7FD04430198C0F3804018B17D
:102040002846FEF70BFD04430198C0F3400050B151
:1020500000200090009820F00200801C0090009862
:10206000E968486100BF0198C00F18B12846FEF723
:1020700009FE04430198C0F3C02018B12846FEF7BA
:10208000A5FE04430198C0F3C00018B12846FEF72E
:1020900087FE04430198C0F3001018B12846FEF7EC
:1020A00027FE04430198C0F3003018B12846FEF71C
:1020B000E1FE04430198C0F3403018B12846FEF712
:1020C00001FC04430198C0F3005018B12846FEF704
:1020D000A1FF04430198C0F3405018B12846FEF711
:1020E000AFFF044320469EE790F8CC250A7090F895
:1020F000CD254A7090F8CE3590F8CF2503EB02221B
:102100004A8090F8D03590F8D12503EB02228A80DE
:1021100090F8D23590F8D32503EB0222CA80CB8801
:102120004FF4A0721350012340F211121354704760
:1021300010B504460023402219462046FEF70BFB4B
:102140000023402280212046FEF705FB01214FF4A9
:1021500089700155A078D4F8E82551688847002097
:1021600010BD10B50446D4F8E8150869804740F260
:102170001310015D401E015503210155002010BDC3
:102180000146034802680869426000207047000069
:10219000A800002010B50446D4F8E405C06920B1B9
:1021A000D4F8E405C16920468847002010BD70B509
:1021B00004460D46A88818BBE88808BBA87800F03C
:1021C0007F064FF48970005D032804D1294620461C
:1021D000FFF7B4FC18E04FF48A70065531462046EC
:1021E000FEF716FB2046FFF7F8FC26B102214FF45C
:1021F0008970015508E001214FF48970015503E011
:1022000029462046FFF79AFC70BD70B504460D467E
:10221000D4F8E4052946026820469047D4F8E8152A
:1022200088688047002070BD70B504460D46A878C8
:102230003049087008460078012804DD2946204608
:10224000FFF77CFC55E04FF48970005D022802D056
:10225000032848D117E02748007880B12548007846
:1022600084F8100103214FF4897001552148017849
:102270002046FFF7CAFF2046FFF7AFFC02E02046EA
:10228000FFF7ABFC34E01B48007880B902214FF423
:10229000897001551748007884F8100115480178B5
:1022A0002046FFF7FEFB2046FFF797FC1AE094F864
:1022B000100110490978884211D094F81011204675
:1022C000FFF7EFFB0B48007884F81001094801780C
:1022D0002046FFF79AFF2046FFF77FFC02E02046EA
:1022E000FFF77BFC04E029462046FFF727FC00BFF0
:1022F00000BF70BDE8000020F8B504460D4600267A
:10230000688801280DD101214FF48C700151D4F857
:10231000E40529468268204690472046FFF75DFC89
:102320003FE0688802283CD12879D0BB206940680A
:102330000090A8880612062E22D2DFE806F02103BC
:10234000090F151B009820F07000103000901DE060
:10235000009820F070002030009017E0009820F0E6
:1023600070003030009011E0009820F07000403094
:1023700000900BE0009820F070005030009005E0D5
:10238000009820F070001030009000BF00BF05489A
:102390000099016001214FF48B7001552046FFF731
:1023A0001CFCF8BDA80000201CB504466946204668
:1023B000FFF79AFE9DF8000000F01F0020B10128F1
:1023C00007D002280FD109E06946204600F016F830
:1023D00011E06946204600F007F90CE06946204606
:1023E00000F046F807E09DF8000000F0800120466C
:1023F000FEF71CFA00BF00BF00201CBD70B50546EB
:102400000C46002660780A2829D2DFE800F019235C
:10241000281E280A0528140F21462846FFF7DCFC51
:1024200022E021462846FFF7C2FE1DE0214628464D
:10243000FFF7FAFE18E021462846FFF7A3FC13E059
:1024400021462846FFF75CFD0EE021462846FFF7AF
:1024500053FF09E021462846FFF72EFB04E0214602
:102460002846FFF76BFB00BF00BF304670BD000081
:102470002DE9F04105460E4600273479307800F00A
:102480006000202808D1D5F8E40531468268284646
:1024900090473846BDE8F0817078002857D0012871
:1024A0002BD0032875D14FF48970405D022802D0EB
:1024B00003281BD107E02CB1802C03D021462846ED
:1024C000FEF7B4F917E0708830B92CB1802C03D036
:1024D00021462846FEF7AAF9D5F8E4053146826878
:1024E000284690472846FFF778FB04E03146284607
:1024F000FFF724FB00BF00BF70E04FF48970405D20
:10250000022802D003281BD107E02CB1802C03D075
:1025100021462846FEF78AF917E0708878B95CB141
:10252000802C09D021462846FEF7F1F8D5F8E405BD
:1025300031468268284690472846FFF74EFB04E064
:1025400031462846FFF7FAFA00BF00BF46E04FF4D5
:102550008970405D022802D0032837D107E02CB1F2
:10256000802C03D021462846FEF760F933E004F0C2
:102570008000802812D104F07F0000EB800105F577
:102580008E7000EBC100807820B1012015490860F1
:1025900016E022E000201349086011E004F08000FA
:1025A00070B904EB840105F55D7000EBC100807823
:1025B00018B101200B49086002E0002009490860B9
:1025C000022208492846FFF7F1FA04E0314628467E
:1025D000FFF7B4FA00BF00BF00E000BF00BF3846FD
:1025E00058E70000DC00002070B504460D460026C8
:1025F0004FF48970005D032814D1287901280CDC80
:10260000D4F8E4052946826820469047E88840B916
:102610003EB92046FFF7E1FA03E029462046FFF7DE
:102620008DFA04E029462046FFF788FA00BF00BF74
:10263000304670BD10B504464FF48970015D401CF2
:1026400001550421401E0155D4F8E815C86880479B
:10265000002010BD70B505460C462DB9224606492E
:1026600006A0FFF775FC04E02246034903A0FFF72C
:102670006FFC014870BD0000E82600205643502042
:10268000436F6E666967000001200149087070475A
:10269000000200200120014908707047000200205C
:1026A000024612200880014870470000C401002043
:1026B00000200149087070470002002010B1012875
:1026C00002D100E001E000E000BF00BF70477047AA
:1026D0000020014908707047000200207047000088
:1026E00070B505460C462DB92246064906A0FFF7EF
:1026F0002FFC04E02246034903A0FFF729FC014810
:1027000070BD0000E826002056435020496E7465D5
:10271000726661636500000002460420088001487B
:1027200070470000E001002070B505460C462246C7
:10273000024903A0FFF70CFC004870BDE82600200A
:10274000566563746F72000070B505460C462DB96E
:102750002246064906A0FFF7FBFB04E02246034998
:102760000CA0FFF7F5FB014870BD0000E826002033
:1027700053544D3332205669727475616C20436F27
:102780006D506F727420696E204853206D6F6465C0
:102790000000000053544D33322056697274756145
:1027A0006C20436F6D506F727420696E2046532009
:1027B0004D6F64650000000070B505460C461A2098
:1027C0002080FEF70FFE014870BD0000E4010020EC
:1027D0000246432008800148704700003C01002069
:1027E00038B5044643208DF8000000208DF8010024
:1027F0008DF8020001208DF803006846FEF79EFE6A
:1028000038BD00001CB5044601210846FEF7E4FE71
:102810004FF4C050009003208DF8050002208DF881
:10282000040000208DF806008DF8070069460B486B
:10283000FEF76CFD0A220B210848FEF7AFFD0A22C5
:102840000C210648FEF7AAFD01218803FEF7E4FEED
:1028500001218020FEF7D0FE1CBD000000000240D8
:1028600010B504464FF47A7104FB01F000F001F852
:1028700010BD10B50022C0EB0013DB000724B3FB32
:10288000F4F100BF531C1A468B4200D910BDF9E782
:102890003EB5044600250020029001900090207A69
:1028A00001283DD1E068806B0190019820F48030D0
:1028B0000190607A28B1019820F4801000F5801012
:1028C00001900198E168886300200290E068C06888
:1028D0000290029820F040000290029820F48000BC
:1028E0000290029820F400300290029820F4002018
:1028F00002900298E168C860204600F063F9E07831
:10290000012843D1009820F01E000A300090009862
:1029100020F02000203000900098E168886035E0C9
:10292000E068C0680290029820F0400040300290B9
:102930000298E168C860204600F044F90020019048
:10294000019820F4803000F580300190019820F447
:10295000802000F580200190019820F4002000F5EF
:1029600000200190019820F4001000F50010019063
:10297000607A28B1019820F4801000F58010019051
:102980000198E16888631420FFF76AFFE078012866
:102990000FD1E06880680090009820F01E000A3097
:1029A0000090009820F02000203000900098E1680E
:1029B000886028463EBD70B588B0044600260020D9
:1029C000079006900590049003900021D4F80C0124
:1029D0000160206900680690069820F4C0500690B7
:1029E000069920690160E07A01283FD10321204641
:1029F00000F006FD8020E1684862059880B200F58D
:102A00000010059005986FF30F0080300590059831
:102A1000E1688862059800EB1041049861F30F00AB
:102A20000490049880B200F5000004900498E168D6
:102A3000C1F80401049800EB104161F30F00049009
:102A4000049880B200F5001004900499E068C0F882
:102A50000811049800EB104161F30F0004900498F2
:102A600080B204900499E068C0F80C11102120464F
:102A700000F07AFC204600F051FC00212069016141
:102A800020694161491E2069816100212069C1617D
:102A900000252CE004F1180050F82500006807908C
:102AA0000798C00F70B100200790079820F0804071
:102AB00000F180400790079820F0006000F100606E
:102AC000079001E00020079004F1180050F825005D
:102AD00007990160002104F1180050F825000161F8
:102AE000FF2104F1180050F8250081606D1C60780A
:102AF000A842CFD800252CE004F1540050F825005E
:102B0000006801900198C00F70B1002001900198F9
:102B100020F0804000F180400190019820F000609A
:102B200000F10060019001E00020019004F15400E8
:102B300050F8250001990160002104F1540050F87B
:102B400025000161FF2104F1540050F82500816047
:102B50006D1C6078A842CFD800200390039820F421
:102B6000807000F5807003902069006903998843A4
:102B7000084321690861E07801281DD100200290F6
:102B8000029820F00100401C0290029820F0020000
:102B9000801C02904021029861F38A000290029802
:102BA00020F4803000F580300290029861F35940A3
:102BB0000290029920690163204600F050FB3046E4
:102BC00008B070BDF8B5044600260025002000902E
:102BD00000BF0320FFF74DFEE06800690090681C0D
:102BE00005461349884201D90020F8BD0098C00F5E
:102BF0000028EED00025009820F00100401C009035
:102C00000098E168086100BFE06800690090681CF6
:102C100005460749884200D904E0009800F0010009
:102C20000028F1D100BF0320FFF723FE3046DCE788
:102C3000400D030008B50146002000220092009AD2
:102C400022F00102521C0092CA689268009B9A43CB
:102C5000CB689A6008BD0EB50146002000220092A4
:102C60000A69926802928A6912680192029AC2F312
:102C7000410232B1012A05D0022A09D0032A0DD11E
:102C800001E000BF00BF019A6FF30A0201920AE05F
:102C9000019A6FF30A02D21C019204E0019A6FF3C9
:102CA0000A02019200BF00BF019B8A691360009A6B
:102CB00022F4807202F5807200920A695268009BC9
:102CC0009A431A430B695A600EBDFCB502460020B8
:102CD00000240025019500954D78012D52D193696E
:102CE0001D6801951D6900954D6955B9009D25F038
:102CF0007F050095009D25F4002505F5002500952C
:102D000016E08E684D69B54207D98D684D610E7A1F
:102D1000009D66F30605009504E00E7D009D66F3B8
:102D200006050095009D25F4002505F50025009574
:102D3000009D1D61D578012D06D10F7802F118058F
:102D400055F827500E696E61019D25F0806505F1EB
:102D500080650195019D25F0004505F1004501952F
:102D6000019D1D60D578002D59D14D69002D56D09B
:102D70000E780125B5402C4315696D6B2543166906
:102D800075634CE00E7802F1540555F826502D6815
:102D900001950E7802F1540555F826502D690095DD
:102DA0004D695DB90E7A009D66F306050095009D9C
:102DB00025F4002505F5002500950CE08D684D6192
:102DC0000E7A009D66F306050095009D25F400250A
:102DD00005F5002500950F7802F1540555F82750A8
:102DE000009E2E61D578012D06D10F7802F1540591
:102DF00055F827500E696E61019D25F0806505F13B
:102E000080650195019D25F0004505F1004501957E
:102E10000F7802F1540555F82750019E2E60FCBD35
:102E20000CB500210191019921F0C04101F1C0418F
:102E30000191019921F4002101F5002101910199ED
:102E400021F07F0118310191019A416D0A61C17829
:102E5000012915D10021009100F2CC51426D516140
:102E6000416D09680091009921F0004101F1004194
:102E700000914FF080210091009A416D0A6000BFDF
:102E80000CBD3CB5024600200024019400944C780F
:102E9000012C0CD10D7802F1180454F825300D786E
:102EA0000124AC40009D64F30F0500950BE00D7804
:102EB00002F1540454F825300D780124AC40009DF3
:102EC00064F31F4500951C680194019CC4F3C03451
:102ED000E4B90D89019C65F30A040194CD78019C45
:102EE00065F3934401948D79019C65F399540194A1
:102EF000019C24F0805404F180540194019C24F43A
:102F0000004404F500440194019C1C601469E469C8
:102F1000009D2C431569EC613CBD38B5034600208B
:102F2000002400944C78012C05D10D7803F118048D
:102F300054F8252004E00D7803F1540454F82520BA
:102F400014680094009C24F400140094CC78032CA2
:102F500002D0CC78022C05D1009C24F0805404F1DE
:102F600080540094009C146038BD3CB5024600209B
:102F70000024019400944C78012C0CD10D7802F1BE
:102F8000180454F825300D780124AC40009D64F3FA
:102F90000F0500950BE00D7802F1540454F825302C
:102FA0000D780124AC40009D64F31F450095019C01
:102FB00024F400440194019C1C601469E469009DA0
:102FC000AC431569EC613CBD38B503460A460020A8
:102FD000002400945478012C18D1157803F11804BA
:102FE00054F825100C680094009CE40F2CB1009C50
:102FF00024F0804404F180440094009C24F40014E4
:1030000004F500140094009C0C600EE0157803F1A8
:10301000540454F825100C680094009C24F4001407
:1030200004F500140094009C0C6038BDFEB5054604
:103030000C460026002700200290019060780128AD
:103040007ED1217805F1180050F821000068029027
:10305000217805F1180050F821000069019060699D
:1030600048B901986FF3120001900121019861F3B2
:10307000DC40019017E06169019861F31200019052
:103080006069401EA1680844B0FBF1F1019861F34A
:10309000DC400190E078012805D1019820F0C04083
:1030A00000F100500190227805F1180050F822003C
:1030B00001990161E878012807D1227805F118000B
:1030C00050F82200216941610DE0E07801280AD022
:1030D000606940B12178012000FA01F72869406B4E
:1030E000384329694863E078012813D1286980684A
:1030F00000900098C0F3002030B9029820F00050F2
:1031000000F10050029005E0029820F0805000F19C
:1031100080500290029820F0806000F18060029060
:10312000029820F0004000F100400290227805F162
:10313000180050F8220002990160E078012800E0B0
:1031400008E070D1A08A83B222782846E16800F0B6
:1031500034FA68E0217805F1540050F82100006845
:103160000290217805F1540050F821000069019087
:10317000606950B9A168019861F3120001900121C2
:10318000019861F3DC40019017E0A068401E61697E
:103190000844A168B0FBF1F1019861F3DC400190B3
:1031A0000198C0F3C940A1684843019960F3120136
:1031B00001910198C0F312006061227805F154007A
:1031C00050F8220001990161E878012806D122789F
:1031D00005F1540050F8220021694161E07801288E
:1031E0000ED1607930B1029820F0005000F100500B
:1031F000029005E0029820F0805000F1805002908B
:10320000029820F0806000F180600290029820F027
:10321000004000F100400290227805F1540050F87F
:103220002200029901603046FEBD08B500210091E0
:10323000491EC26851606FF08041C26851610099B7
:1032400021F0004101F100410091009921F4006159
:1032500001F5006100910099C268916108BD38B51F
:103260000446002500200090E16888616FF08040EE
:10327000E16848612046FFF7D8FFE07820B9009860
:1032800020F0100010300090009820F4006000F54D
:1032900000600090009820F4805000F5805000906D
:1032A000009820F4005000F500500090009820F4A1
:1032B000802000F580200090009820F4002000F588
:1032C00000200090009820F008000830009000983E
:1032D00020F4801000F580100090009820F4001079
:1032E00000F500100090E068806900998843084369
:1032F000E1688861284638BD08B5014600200022F3
:103300000092009A22F00102521C0092CA68926850
:10331000009B1A43CB689A6008BD0000F8B50446CC
:103320000025002600200090009820F010001030AA
:1033300000900098E168086100BFE06800690090B3
:10334000701C06460749884200D904E00098C0F383
:1033500000100028F1D100BF0320FFF78AFA2846A9
:10336000F8BD0000400D0300F8B504460D460026E8
:10337000002700200090009820F0200020300090CE
:10338000009865F38A1000900098E168086100BF1A
:10339000E06800690090781C07460749884200D918
:1033A00004E00098C0F340100028F1D100BF0320D2
:1033B000FFF75FFA3046F8BD400D030008B501463F
:1033C00000200A6992680092009AC2F3410232B169
:1033D000012A06D0022A07D0032A07D102E00320DF
:1033E00006E000BF022003E0012001E0022000BF50
:1033F00000BF08BD0146C868406900F00100704781
:1034000008B5026912680092009A61F30102009205
:10341000009B0269136008BD00B502461046FFF725
:10342000E9FF012801D0012000BD0020FCE7014692
:103430000020CA685069CA68926910407047014606
:10344000086982690869C069024090B27047014604
:10345000086982690869C0690240100C7047024619
:1034600002F1540353F82130986813695B691840DE
:103470007047F0B503460024D01CC71700EB9777C0
:10348000BD10D3F8D06000BF03E030680860091DAC
:10349000641CAC42F9D30846F0BD000070B502468A
:1034A0000C46002300200025D5700125957040258D
:1034B0009580012C0CD14FF0A0430125D572082531
:1034C0001570042555709D15D580022515720AE0EA
:1034D0004CB9254B0025D5720C2515700625557065
:1034E0004FF4A065D580D36003F500651561002118
:1034F00010E003F5106505EB411602F1180545F8DB
:10350000216003F5306505EB411602F1540545F8DD
:103510002160491C55788D42EBD803F580655561D3
:103520004035C2F8CC50002108E003F5A06505EB5A
:10353000411602F1900545F82160491C15788D422D
:10354000F3D8002108E003F5805505EB013602F1C0
:10355000D00545F82160491C15788D42F3D803F554
:103560006065C2F80C5170BD00000440F8B5044617
:103570000D460026E068C0680090009820F00050DA
:103580000090009820F080400090012D06D1009816
:1035900020F0005000F10050009006E02DB9009896
:1035A00020F0804000F1804000900098E168C86001
:1035B0003220FFF755F93046F8BD2DE9F0410446B9
:1035C0000026E078B0B900270020DD1C4FEAE5783E
:1035D00005EB98784FEAA80704F1D00555F822C00A
:1035E00000BF04E00D68CCF80050091D401CB84233
:1035F000F8D300BF3046BDE8F08100BFFEE7000011
:1036000010B50346042B15D007DC7BB1012B0ED07F
:10361000022B0DD0032B3CD10BE0202B0BD0212B08
:103620001CD0222B33D0232B33D131E032E031E0D8
:1036300030E02FE02EE008784C7840EA04208C78C7
:1036400040EA0440CC7840EA0460144C20600879D9
:103650002071487960718879A0711BE00F4800786B
:1036600008700E480088000A48700C480068000C7A
:1036700088700A480068000EC87008480079087110
:1036800006484079487105488079887102E001E078
:1036900000E000BF00BF002010BD00008801002036
:1036A0007CB505460E4600200190002409E0285D07
:1036B0000090002301AA69460448006804F0A0FCB9
:1036C000641CB442F3D300207CBD000084010020C0
:1036D000014610488079072806D101F07F000E4A84
:1036E0000E4B1B68D05407E00A488079082803D1A4
:1036F00009480A4A1268815408480068401C074A71
:10370000106010460068B0F5007F01D10020106005
:1037100000207047880100202B1E0020F8000020A8
:1037200000207047002070474100080218BF0420A5
:103730000A0E18BF40F001004FF07F4232EA01014B
:1037400008BF40F00200012808BF052070470000B4
:1037500010EE101A08B5444A6846B2EB410F28D95A
:103760004FF0E640B0EB410F94BF00204FF0FF3028
:1037700000900098002861DB60EE000A10F0010F55
:1037800045D010F0020FDFED391A9FED391A00EE27
:10379000E11ADFED381A40EE811A21EEA01AF0EEA0
:1037A000400A40EE010A08BFF1EE600AB0EE600A7E
:1037B00008BD314B21F0004293423CD911F0004F3B
:1037C000DFED2E0A20EE201ADFED2D0A19BF31EEB3
:1037D000601A71EE200A31EE201A71EE600ABDEE19
:1037E000E01A11EE100A9FED271A00F0030000EE18
:1037F000C10A9FED251A009000EEC10A9FED231A21
:1038000000EEC10A9FED221A00EEC10AB1E79FED5A
:10381000211A9FED210A10F0020F00EE810A9FEDA0
:103820001F1A00EE801AB7EE000A00EE810A18BFD8
:10383000B1EE400A08BD00F069FC9AE710EE100AEC
:103840004000B0F17F4F3CBFB7EE000A08BD07D182
:103850004FF00100FCF7CDFEBDE8084000F03EBC93
:10386000BDE8084000F034BCB61F927E336D4C3981
:10387000DA82083CA0AA2ABE490E494683F9223FB3
:103880000000004B0000C93F00A0FD390020A2331A
:103890001A61342CB93AB2BACA9F2A3DDDFFFFBE85
:1038A00010B510EE100A2DED068BB7EE001A10EED3
:1038B000901AB0EE418A0022A0F5000CDFEDFE9ACE
:1038C0004FF00073BCF1FE4F4FF07F4403EB410C0F
:1038D00080F0B481BCF1804FC0F02082F7490144F0
:1038E0009FEDF73AB1F5005F40F2D48200F58021F8
:1038F000CB0C03F00F0101EE901AC3F307137F3BCB
:10390000A0EBC350B8EEE12A00EE100A1A44DFED36
:10391000ED2AF0EE411A42EE221AF0EE613A70EE14
:10392000232A30EE632A12EE900A00F500606FF34E
:103930000B0001EE900A73EEE13A33EE804AC1EEDD
:10394000223A22EE230A10EE100A00F500606FF30F
:103950000B0000EE100A00EE612A00EE442A62EE2F
:10396000232A70EE221A21EEA12ADFEDD73A02EEC9
:10397000233A23EE023A20EE012A22EE811A03EEC8
:10398000211A32EE010A10EE100A00F500606FF302
:103990000B0000EE100A72EE401A31EE812A9FED04
:1039A000CB1A60EE011A9FEDCA1A20EE011A9FEDA4
:1039B000C90A02EE001A31EE810A10EE100A00F573
:1039C00000606FF30B0000EE100AC34871EEC01ADE
:1039D00031EE812A784400EBC10090ED003AD0ED41
:1039E000011A100101EE100AF8EEC12A32EE211A76
:1039F00031EE001A31EE031A31EE221A11EE100ADE
:103A000000F500606FF30B0009EE100A39EE621A40
:103A100031EE431A31EE400A30EE610A32EE40AA2E
:103A200010EE900A002100F500606FF30B0008EE25
:103A3000900A084670EEE8AA4FF0000029EE280A26
:103A400000F00C01F0EEC00A10EE900AB0F18B4FBE
:103A50000DDD10EE900AB4EB400F08D310EE100A03
:103A60004FF08B4262F31E0008EE900A13E069EEFD
:103A70002A0A38EEAA1A4AEE010A30EE201A11EE8E
:103A8000100A00F500606FF30B0008EE900A30EEAC
:103A9000680A70EE209A0C204FF0000038EEA90A58
:103AA000B5EEC00AF1EE10FA34BFFEEE000AF6EEF3
:103AB000000A30EE800ABDEEC00A10EE100A0111B5
:103AC00000EE101AF8EEC00A00EE100AB8EEC00AB6
:103AD00038EEC00A30EE290ADFED801A9FED801A19
:103AE00000EE211ADFED7F1A7F4900F00F0040EE53
:103AF000011A21EE800A794401EB800191ED001A50
:103B00007A49794401EB8001D1ED001A784901EE40
:103B1000801A794401EB8000764990ED000A31EE7D
:103B2000001AB0EEE00A10EE100A884215DA10EE24
:103B3000100AB4EB400F10D39FED6F0A30EE800AED
:103B4000DFED6E0A20EE200A68EE010ABDEC068B5E
:103B5000BCEEC00A20EE200A10BD10EE100A684923
:103B6000884243DA10EE100AB4EB400F3ED3BDEEAC
:103B7000E00A68EE010A10EE100A00EBD072511054
:103B8000C90501F17E5100EE101AA0EB6200C005DC
:103B900060EE200A00F17E5000EE100A60EE808A8E
:103BA00018EE900AB4EB400F0FD10220FCF721FD74
:103BB00000F09CFA10EE101A18EE100ABDEC068BFD
:103BC00061F31E0000EE100A10BD18EE900A4000CE
:103BD00011D018EE900AFFF7A7FD042808BF00F0E7
:103BE0008DFAB0EE680ABDEC068B10BDF5EEC00A8A
:103BF000F1EE10FA0FD20220FCF7FBFC00F07EFA87
:103C000010EE101A18EE100ABDEC068B61F31E00C0
:103C100000EE100A10BD0220FCF7EBFC00F066FA83
:103C200010EE101AB0EE480A10EE100ABDEC068B2A
:103C300061F31E0000EE100A10BD00BFBCF1804F02
:103C40006CD300BF00F1FF43B3F1FE4F24D200BF9D
:103C5000B0EEC00A10EE100AC1F3C7537F2B0DDB84
:103C6000972BBFF63BAEC3F196034FF0010C0CFA55
:103C700003F3A3F1010C1CEA010F08D00120FCF7AB
:103C8000B8FCBDEC068BBDE8104000F027BA0B4233
:103C900018BFBFEE008A21E643001CBF4FF08073BF
:103CA000B3EB400F34D96FF01A02DFED161A20EE95
:103CB000210A10EE100A27E000000000001080C06A
:103CC000ABAAAA3E0000803D7EE24C3E00B03842E6
:103CD000D49AB8BB3BAA3842584C0000FC59633711
:103CE000C9FF753A1872313DF64B00002A4C0000AE
:103CF0009A4B00000000FC420000FE420000004B16
:103D0000000040430000004D10F0004FA0D1E5E559
:103D1000A0F50003B3F1FE4F21D2DFE503EB410331
:103D2000B3F1007F11D3F5EEC00AF1EE10FA05D120
:103D3000430018BFB4EB400F76D883E701F0004191
:103D400041F0FC5100EE901A7CE7B3F1807F06D27F
:103D500010EE903AA3F5000300EE903A72E720F0DF
:103D600000426FF0FF4C604C02EB0C03A34210D3F7
:103D700021F000439C44A4450BD3B0F17E5F18BFF3
:103D80005FEA410C50D0B2F1FF4F98BFB3F1FF4F43
:103D900005D9BDEC068BBDE8104000F09CB9B0F130
:103DA000FF4F0FD0C1F3C7527F2A09DB972A11DAE0
:103DB000C2F19602012303FA02F2531E0B4205D010
:103DC000002208E011F0004F55D128E00A4218BF48
:103DD000012200D1022210F5000F13D028B3B0F158
:103DE000004F26D010F1814F4FD04FF0FE42B2EB82
:103DF000400F94BF01200020012202EBE1718842B4
:103E000039D10CE011F0004F02D0012A38D032E055
:103E1000012A02BF9FED350ABDEC068B10BD9FED58
:103E2000340ABDEC068B10BD2FE011F0004F0CD111
:103E300021E0B1F1FF4F1ED011F5000F05D011F0B8
:103E4000004F15D00AB1012A08D00220FCF7D1FB9F
:103E5000BDEC068BBDE8104000F030B90220FCF745
:103E6000C8FB00F02BF9BDEC068BB1EE400A10BD8B
:103E70000AB1012A04D0B0EE690ABDEC068B10BD70
:103E8000BDEC068B9FED1B0A10BDBDEC068BB7EE9B
:103E9000000A10BD30EE410AB5EE001A9FED172A58
:103EA00000EE413AB6EE001A60EE001A00EE431A38
:103EB00061EEC11A9FED101A20EE011A20EE020ADF
:103EC0009FED0F2A01EE820A71EE001A11EE900AA0
:103ED00000F500606FF30B0009EE100A31EE491A8D
:103EE00031EE00AA9CE50000FFFF3F00000080FFCC
:103EF0000000807F0000008000B0B841D49A38BB39
:103F00003BAAB84110B52DED028BB1EEC08A18EE78
:103F1000100A20F00040C0F1FF40C00F0AD010EEA0
:103F2000100A20F00040C0F1FF40C00F04BF012084
:103F3000FCF75FFBB0EE480ABDEC028B10BD000041
:103F400000B510EE101A2DED028B81B04D4A684677
:103F5000B2EB410F3CD94FF0E640B0EB410F94BFBC
:103F600000204FF0FF3000900098B0EE408A00280B
:103F70005FDB28EE080ADFED440A9FED441A00EEED
:103F8000201ADFED430A40EE010A9FED421A00EECF
:103F9000201ADFED410A10F0010F40EE010A9FEDFB
:103FA0003F1A00EE201A61EE000AB0EE480A08EE51
:103FB000200A02BF01B0BDEC028B00BDBFEE001AAB
:103FC00001B0C1EE000ABDEC028BB0EE600A00BD8C
:103FD000334B21F00042934228D911F0004FDFED1E
:103FE000310A20EE201ADFED300A19BF31EE601AD7
:103FF00071EE200A31EE201A71EE600ABDEEE01A71
:1040000011EE100A9FED291A00F0030000EEC10A1C
:104010009FED271A009000EEC10A9FED261A00EED0
:10402000C10A9FED251A00EEC10A9DE700F06EF867
:104030009AE718EE100A4000B0F17F4F0DD218EE4B
:10404000100AFFF771FB042808BF00F057F8B0EE24
:10405000480A01B0BDEC028B00BD09D10120FCF77C
:10406000C8FA01B0BDEC028B5DF804EB00F036B885
:1040700001B0B0EE480ABDEC028B5DF804EB00F035
:1040800027B80000B61F927EBBE9223C0C6D063BB0
:104090008A76CE3CACB5593D35A1083E29AAAA3E48
:1040A000490E494683F9223F0000004B0000C93FFA
:1040B00000A0FD390020A2331A61342CDFED030A81
:1040C000B7EE001A81EE200A7047000000000000E1
:1040D00030EE000A704730EE200A7047DFED020A2A
:1040E00080EEA00A70470000000000009FED020A69
:1040F00020EE000A70470000000000709FED020AE9
:1041000020EE000A70470000000000102DE9F001C9
:104110004FF07F42B2EB410F9FBF4FF0FF31016084
:10412000BDE8F00170474FF0004242EA0123C1F3BD
:10413000C752783A551112F01F0C434CCCF12006AF
:104140007C44C1F3C752A2F178024FEA621204EB39
:10415000820254F8254008BFD2E9015612D05568B2
:1041600004FA0CF425FA06F73C43976805FA0CF5B7
:1041700027FA06F8D26807FA0CFCF24045EA08056F
:104180004CEA0206A4FB034CA5FB0352A6FB036307
:104190001D449D4234BF012600261319334416B135
:1041A000934202D903E0934201D2012200E00022AF
:1041B000624402F1200C9206DC0C42EA443200EE2A
:1041C000102A5B03DFED210AF8EEC01A00EE103A68
:1041D0004FEA9C1C11F0004FB8EE400AC0F800C036
:1041E00020EE201A00EE105ADFED190AB8EE400A50
:1041F00020EE200A71EE810A70EE800A10EE902AFD
:1042000002F500626FF30B0200EE902A70EEE11AE5
:1042100031EEC11ADFED101A30EE411A9FED0D0A92
:1042200020EE800A01EE210A9FED0C1A00EE810AB1
:1042300004BFBDE8F0017047CCF180510160BDE8DA
:10424000F001B1EE400A70472C4600000000003635
:104250000000802C22AAFD29DB0FC92F0000C92FE6
:104260000FB49DF8050040281BD00CDC0C2815D09D
:1042700004DC012810D0022818D10EE021280ED02D
:10428000302813D10CE050280CD0A0280BD0A12846
:104290000AD0A2280AD108E009E008E007E006E019
:1042A00005E004E003E002E001E000E000BF00BF41
:1042B00004B070470FB49DF80500212829D010DC08
:1042C000042822D006DC01281CD002281BD0032899
:1042D00027D119E0052819D0102818D0202820D17E
:1042E00016E0252819D006DC222813D0232812D066
:1042F000242816D110E0262810D0A0280FD0A128FD
:104300000FD10DE00EE00DE00CE00BE00AE009E05B
:1043100008E007E006E005E004E003E002E001E079
:1043200000E000BF00BF04B07047000010B50848AF
:10433000007800B110BD002226210A2003F0BAFC4B
:104340000449086001200249087000BFF2E700003C
:104350004C000020500000200FB400B587B09DF83D
:104360002300142847D00DDC142852D2DFE800F0D7
:10437000511F2933515151513435365151515151F9
:10438000373A3D403B283FD008DC152836D020285E
:1043900037D0212836D03A283BD134E0402834D0D9
:1043A000502833D0562832D0F02832D130E01622AF
:1043B0000CA96846FCF73DF808A80FC8FFF77AFF7C
:1043C00028E016220CA96846FCF733F808A80FC8A5
:1043D000FFF746FF1EE01DE01CE01BE01AE000F0C6
:1043E00043F817E000F040F814E000F03DF811E069
:1043F00000F03AF80EE000F037F80BE000F034F887
:1044000008E007E006E005E004E003E002E001E088
:1044100000E000BF00BF07B05DF814FB90B00FE0F4
:1044200000235A1E06A90748006803F05FFC162205
:104430000AA96846FBF7FDFF06A80FC8FFF78CFF27
:10444000EEE700005000002010B5044600235A1E7D
:1044500021460448006803F037FD08B1012010BD73
:104460000020FCE750000020704710B54FF440706A
:10447000FDF7A0F800F07AFD00F04AFE00F002F827
:1044800010BD00001CB53F48007800B11CBD0024E1
:1044900001208DF8040000208DF8060003208DF81F
:1044A000050001208DF8070037483849886104214C
:1044B00036488183344835490863811533488186FD
:1044C00033483249886410213048A0F84C102E48F7
:1044D0002E49086602212D48A0F8641000BF47E06D
:1044E00004EB4400294901EBC000C471002004EB37
:1044F0004401264A02EBC101487204EB440102EB7D
:10450000C101088204EB440102EBC101C88104EB44
:10451000440102EBC101488204EB440102EBC101FA
:10452000488104EB440102EBC101888104EB4401A2
:1045300002EBC1010872012004EB440102EBC1014E
:10454000887104EB440152F8310000F099FC04EB4F
:1045500044000E4901EBC0008088009004EB440148
:104560000A4A52F831006946FCF7D0FE601CC4B21A
:10457000052CB5DB002000F00DF801200149087082
:1045800000BF83E728000020000002408C020020CA
:104590000004024010B52749097811B9052800DB4D
:1045A00010BD28BB002120E001EB4102224B03EBB0
:1045B000C20292795AB901EB410203EBC20292881E
:1045C00001EB41031C4C54F833305A830BE001EBF0
:1045D0004102194B03EBC202928801EB4103164CD6
:1045E00054F833301A834A1CD1B20529DCDB1EE0B3
:1045F00000EB4001104A02EBC101897959B900EB87
:10460000400102EBC101898800EB40020A4B53F8DC
:10461000322051830BE000EB4001074A02EBC1015D
:10462000898800EB4002044B53F83220118300BF0D
:10463000B6E70000280000208C02002010B52749B2
:10464000097811B9052800DB10BD28BB002120E046
:1046500001EB4102224B03EBC20292795AB901EB02
:10466000410203EBC202928801EB41031C4C54F857
:1046700033301A830BE001EB4102194B03EBC2020A
:10468000928801EB4103164C54F833305A834A1C8C
:10469000D1B20529DCDB1EE000EB4001104A02EB41
:1046A000C101897959B900EB400102EBC101898848
:1046B00000EB40020A4B53F8322011830BE000EB71
:1046C0004001074A02EBC101898800EB4002044B1C
:1046D00053F83220518300BFB6E7000028000020C5
:1046E0008C0200202DE9F04104460E4617469846FC
:1046F00000253F48007818B9052C01DBBDE8F081A2
:104700003EB104EB44003B4901EBC000007A0128B4
:1047100000D1F3E79CBB00252EE005EB45003549B1
:1047200001EBC000468105EB450001EBC00087812D
:1047300005EB450001EBC000A0F80E80002005EB62
:1047400045012C4A02EBC101088205EB450102EB51
:10475000C101487205EB450102EBC101087205EB8E
:10476000450102EBC1014882012005EB450102EB46
:10477000C1010875681CC5B2052DCEDB2DE0FFE731
:1047800004EB44001B4901EBC000468104EB4400EC
:1047900001EBC000878104EB440001EBC000A0F8EE
:1047A0000E80002004EB4401124A02EBC101088292
:1047B00004EB440102EBC101487204EB440102EB3B
:1047C000C101087204EB440102EBC10148820120DF
:1047D00004EB440102EBC101087504EB4401054AF6
:1047E00002EBC101C879FFF729FF00BF86E700008F
:1047F000280000208C02002010B5002400BFB8E083
:1048000004EB44005D4901EBC000007D60B104EBA6
:10481000440001EBC000808930B104EB440001EB9F
:10482000C000007A012800D1A1E004EB4400534904
:1048300001EBC000407A78BB04EB440001EBC00000
:104840008089002827DD04EB440001EBC000008ACA
:10485000401C80B204EB4401484A02EBC1010882CB
:1048600004EB440102EBC101498988427EDB04EB81
:10487000440102EBC101C879FFF78CFE002004EB74
:1048800044013E4A02EBC1010882012004EB4401CD
:1048900002EBC101487269E0FFE704EB44003749CD
:1048A00001EBC000407A012860D104EB440001EB29
:1048B000C000008A401C80B204EB44012F4A02EB86
:1048C000C101088204EB440102EBC10189898842DD
:1048D0004CDB04EB4400114601EBC000C08900280A
:1048E00031DD04EB440001EBC000C08942F20F71DE
:1048F000884228D004EB4400114601EBC000408AF6
:10490000401C80B204EB440102EBC101488204EB7D
:10491000440102EBC101C989884205DB002004EB98
:10492000440102EBC101087504EB4400134901EB9B
:10493000C000007D38B9002004EB44010F4A02EBAF
:10494000C101888113E0002004EB44010B4A02EB13
:10495000C101088204EB440102EBC101487204EB7F
:10496000440102EBC101C879FFF768FE00BF601C7B
:10497000C4B2052CFFF644AF10BD00008C0200202D
:1049800010B50248024C1ECC1EC010BD60040020B1
:10499000200400203EB504460A201821CDE9010478
:1049A000009102480FC800F0ABFE3EBD600400203D
:1049B0002DE9FF5F04460D4616461F46DDE910ABA4
:1049C000DDE90E892D4814213B22D223CDE90032A6
:1049D000CDE902102A480FC800F084FD274800786E
:1049E000000200B225494978084328802348C0784E
:1049F0002249897840EA012000B220801F4840798E
:104A00001E49097940EA012000B230801B48407AF3
:104A10001A49097A40EA012000B2A8F800001748B4
:104A2000C07A1649897A40EA012000B238801348DA
:104A3000407B1249097B40EA012000B2A9F800003E
:104A40000E48807B000200B20C49C97B0843AAF8DB
:104A500000000A48007C000200B20849497C084373
:104A6000ABF800000548807C000200B20349C97C15
:104A7000084312990880BDE8FF9F00003004002021
:104A8000200400201CB5154800F0FAF9134800F086
:104A9000F7F94FF400701249C8601048886080151B
:104AA00048600E4808608015009001208DF80400D1
:104AB00000208DF8060001208DF8070002208DF8F7
:104AC000050069460548FCF721FC4FF40070009092
:104AD00069460248FCF71AFC1CBD000000040240B5
:104AE0002004002010B5FFF7CDFF10BD1FB5012039
:104AF00007216B22D223CDE90032CDE90210024812
:104B00000FC800F04EFD1FBD2004002010B586B078
:104B10000446022000211D22CDE90304CDE9012134
:104B2000D220009002480FC800F063FD06B010BD0F
:104B30002004002010B586B00446032002216B2219
:104B4000CDE90304CDE90121D220009002480FC82D
:104B500000F04FFD06B010BD2004002010B586B057
:104B60000446032002211A22CDE90304CDE90121E4
:104B7000D220009002480FC800F03BFD06B010BDE7
:104B80002004002010B586B00446022004211C2217
:104B9000CDE90304CDE90121D220009002480FC8DD
:104BA00000F027FD06B010BD2004002010B586B02F
:104BB0000446022004211B22CDE90304CDE9012192
:104BC000D220009002480FC800F013FD06B010BDBF
:104BD000200400201FB5044601203721D222CDE950
:104BE0000204CDE9002102480FC800F0DAFC1FBD25
:104BF000200400201FB5044605206A21D222CDE9F9
:104C00000204CDE9002102480FC800F0CAFC1FBD14
:104C1000200400201FB5044600203821D222CDE90F
:104C20000204CDE9002102480FC800F0BAFC1FBD04
:104C3000200400203EB504463820D221CDE90104ED
:104C4000009102480FC800F05BFD3EBD200400202B
:104C50001FB5044606203721D222CDE90204CDE952
:104C6000002102480FC800F09CFC1FBD200400205A
:104C70001FB5044605203721D222CDE90204CDE933
:104C8000002102480FC800F08CFC1FBD200400204A
:104C90001FB5044604203721D222CDE90204CDE914
:104CA000002102480FC800F07CFC1FBD200400203A
:104CB0001FB5044607203721D222CDE90204CDE9F1
:104CC000002102480FC800F06CFC1FBD200400202A
:104CD00010B586B00446042003212422CDE9030444
:104CE000CDE90121D220009002480FC800F081FCDC
:104CF00006B010BD200400203EB504461920D22184
:104D0000CDE90104009102480FC800F0F9FC3EBD56
:104D10002004002010B586B004460520042134226A
:104D2000CDE90304CDE90121D220009002480FC84B
:104D300000F05FFC06B010BD200400203EB5044624
:104D40000D46032C00DD3EBD04EB44002530C0B20F
:104D5000D221CDE90105009102480FC800F0D0FC36
:104D600000BFF0E72004002030B585B004460D46B2
:104D7000032C01DD05B030BD0421032204EB440007
:104D80002730C0B2CDE90315CDE90102D220009051
:104D900002480FC800F02DFC00BFEBE72004002004
:104DA0007FB504460D466720D22101AA31C2009189
:104DB00002480FC800F0F5FB7FBD00002004002072
:104DC0007FB504460D46032C00DD7FBD072104EBB3
:104DD00044002730C0B2D22201AB23C30092034863
:104DE0000FC800F0DEFB00BFEFE70000200400204A
:104DF0001FB5044604202421D222CDE90204CDE9C6
:104E0000002102480FC800F0CCFB1FBD2004002089
:104E10003EB504460D46032C00DD3EBD04EB4400C8
:104E20002630C0B2D221CDE90105009102480FC859
:104E300000F066FC00BFF0E7200400201FB5044628
:104E400006206B21D222CDE90204CDE900210248DF
:104E50000FC800F0A6FB1FBD200400201FB50446AC
:104E600084F0010003216B22D223CDE90032CDE989
:104E7000021002480FC800F094FB1FBD2004002060
:104E800070B50446204600F005F805460121FCF700
:104E9000A3FB70BD01460020164A914201D10120BA
:104EA00026E0154A914201D1022021E0134A9142A5
:104EB00001D104201CE0124A914201D1082017E0E0
:104EC000104A914201D1102012E00F4A914201D1C3
:104ED00020200DE00D4A914201D1802008E00C4ACB
:104EE000914201D1881503E00A4A914200D1402045
:104EF0007047000000000240000402400008024029
:104F0000000C02400010024000140240001C02404D
:104F10000020024000180240F0B5034600224FF086
:104F2000E02675690F4E36680F4FB6FBF7F606FBA5
:104F300003F400BF4FF0E026B16910E04FF0E02627
:104F4000B06988420BD0884202D20E1A324402E085
:104F50002E1A0E4432440146A24200D300E0EDE78F
:104F600000BFF0BD0400002040420F0010B500203B
:104F700000BF1BE0002200EB8003194C04EB83030D
:104F80005A6000EB800304EB83039A6000EB80031C
:104F900004EB83035A7000EB800304F8232000EB3A
:104FA000800304EB83031A61421CD0B20828E1DBC2
:104FB0000C4A12680C4BB2FBF3F14FF47A72514376
:104FC0004FF0E022126942F002024FF0E0231A6132
:104FD0001A465161126942F002021A6110BD0000C6
:104FE000040300200400002040420F0010B50121FE
:104FF0008805FCF7F1FA0020104908614FF00060C5
:1050000008604020C8600020C86208630C488860BF
:105010000020486308624FF4806088610020486285
:105020000848486000208863C86148614FF4003038
:10503000886201200449087010BD0000E4030020CC
:10504000A4030020041001402D00002008B500201A
:105050000090002210210B48FCF7A5F80A490948E6
:10506000FCF772F8002280210848FCF74FFC002171
:105070000448FCF783F869460548006803F00EF819
:1050800008BD0000B8640240008000280010014004
:10509000300000201CB51348FFF7F2FE072211462E
:1050A0001048FCF77BF9072206210E48FCF776F939
:1050B0004020009002208DF8040001208DF80700A8
:1050C00000208DF8060001208DF80500694605488E
:1050D000FCF71CF98020009069460248FCF716F99D
:1050E0001CBD00000004024010B5044600234FF42C
:1050F0007A7221460548006802F0F8FD012800D1C7
:1051000010BD0020207000BFFAE70000380000202A
:1051100010B50948007800B110BD00F05FF8FFF746
:10512000B9FF00F0F3F8FFF761FF00F07BF8012012
:105130000149087000BFEFE72C0000201CB50020DB
:105140000190009040F225511E48FCF7E8FB80B129
:105150001C48FCF79DFCC0B201909DF8040002F0D1
:1051600081F800236A4601A91748006802F048FF49
:1051700026E040F227711348FCF7D1FB00B3134837
:10518000006890B1124800781249097888420CDA18
:105190000F4802780078401C0D4B18700B480068CF
:1051A000815C0848FCF779FC0AE0002240F2277194
:1051B0000448FCF7DEFB69460748006802F06EFF12
:1051C0001CBD000000100140380000203C00002001
:1051D00040000020410000203000002010B50322D4
:1051E0000021012002F066FD0B4908600322002126
:1051F000012002F05FFD0949086000231A461946A4
:105200000648006802F060FE00220121802002F0C2
:1052100051FD0349086010BD30000020340000201B
:105220003800002008B525208DF8000001208DF8F9
:10523000010000208DF8020001208DF8030068466F
:10524000FCF77CF946208DF8000001208DF8030062
:1052500007208DF8010000208DF802006846FCF759
:105260006DF908BD70B505460C462048007800B9B8
:1052700070BD00235A1E19461D48006802F036FD15
:1052800000BF1C48FBF785FF0028FAD122462946BB
:105290001948FBF789F8194804611948046017494F
:1052A0001448FBF79DFF012210211248FBF77BFFFA
:1052B000012280211348FCF729FB40211148FCF70B
:1052C00001FB01210B48FBF759FF00235A1E194629
:1052D0000D48006802F00AFD00231A4619460448EA
:1052E000006802F0F1FD00BFC2E700002D000020C1
:1052F00034000020B8640240A4030020E40300202E
:105300004400002000100140300000201FB50121A2
:105310001020FCF781F9134800900020ADF80C0034
:105320000C20ADF80A000020ADF80800ADF806002A
:10533000ADF8040069460C48FCF740FB40F22551EB
:105340000948FCF7C8FA012240F225510648FCF74B
:1053500010FB01210448FCF7CDFA40210248FCF77C
:10536000B1FA1FBDB0AA0E0000100140B0EE401A05
:1053700090ED052AD0ED002AF0EE411A42EE621AB5
:1053800090ED062AD0ED012A42EE621AF0EE610A93
:1053900010EE901AC1F3C752FF2A01D0012200E09B
:1053A00000220AB9F0EE410AD0ED051A90ED032A69
:1053B00061EE821A90ED022A40EE821A90ED062AE2
:1053C000D0ED042AB0EE610A02EE220AD0ED051AF1
:1053D000C0ED061AC0ED050A704710B52DED028B21
:1053E0000446F0EE408AB0EE608A24B1B5EEC08A81
:1053F000F1EE10FA02D8BDEC028B10BDF0EE480AB7
:10540000B0EE680A204600F003F800BFF3E70000A2
:1054100010B52DED068B0446B0EE409AF0EE609A82
:1054200089EE290AB0EE40AA9FED2B0AC0EE0A0AC7
:10543000F0EE60AAB0EE6A0AFEF782FDB0EE408A96
:105440009FED260AFEF784F9F0EE000A60EE200ACE
:10545000B7EE000A00EE880A08EE080AF0EE408A6D
:1054600028EE080AC0EE280AC4ED020A94ED020AEA
:10547000F0EE000A20EE200A84ED030A94ED020A01
:1054800084ED040AB7EE000A18EE080AF0EE000AEE
:1054900020EE200AC0EE280AC4ED000A9FED0F0A94
:1054A000FEF756F9F0EE000A60EE200AB7EE000AA9
:1054B00000EEC80A08EE080AC0EE280AC4ED010A88
:1054C0009FED070A84ED050A9FED050A84ED060AA3
:1054D000BDEC068B10BD0000DB0F4940DB0F493FE0
:1054E00000000000FFB581B0DDE90B750D9E0A9C40
:1054F00001A80FC800F0F9F9009401A80FC800F046
:1055000084F901A80FC800F028FA30B101A80FC82B
:1055100000F007FA012005B0F0BD009701A80FC800
:1055200000F073F901A80FC800F017FA01A80FC81E
:1055300000F0DBF944F00100009001A80FC800F072
:1055400064F901A80FC800F008FA13E0012D07D193
:105550000020009001A80FC800F01AF9307006E092
:105560000120009001A80FC800F012F93070681EE9
:10557000C5B2761C002DE9D101A80FC800F0D1F901
:105580000020C8E77FB584B00CAC70CC0120CDE919
:105590000206CDE9004504A80FC8FFF7A3FF08B035
:1055A00070BDFFB585B00EACF0CC0020049004A80F
:1055B000CDE90045029005A80FC8FFF7E3FF37B912
:1055C0000120B0409DF8101021EA000004E0012005
:1055D000B0409DF810100843C0B204909DF8100030
:1055E000CDE90045029005A80FC800F089F809B080
:1055F000F0BD2DE9FF4385B0DDE91286149FDDE99A
:1056000010450020049004A8CDE90045029005A8AB
:105610000FC8FFF7B7FF9DF81000FF2823D0012027
:10562000B040401EA8EB0601491C884000F0FF096D
:10563000A8EB0600401C07FA00F0C7B207EA09070A
:105640009DF8100020EA090004909DF810003843EE
:1056500004909DF81000CDE90045029005A80FC800
:1056600000F04EF800BF04A8CDE90045029005A85F
:105670000FC8FFF787FF9DF8100009B0BDE8F08361
:105680002DE9FF4182B00CAC94E8D001002502A8BE
:105690000FC800F02AF9009402A80FC800F0B5F86E
:1056A00002A80FC800F059F938B102A80FC800F0DD
:1056B00038F9012006B0BDE8F081009602A80FC8B5
:1056C00000F0A3F802A80FC800F047F9002513E086
:1056D00018F80500009002A80FC800F096F802A87C
:1056E0000FC800F03AF928B102A80FC800F019F964
:1056F0000120DFE7681CC5B2BD42E9DB0020D9E725
:105700003FB585B0DDE90C450EA80121CDE9004586
:10571000CDE9021005A80FC8FFF7B2FF09B030BDF0
:105720001FB59DE80F0000F0A8F89DE80F0000F0FD
:10573000C6F89DE80F0000F0BDF80220FFF7ECFB73
:105740009DE80F0000F094F80220FFF7E5FB9DE8CC
:105750000F0000F092F81FBD1FB59DE80F0000F08C
:105760008CF89DE80F0000F0AAF89DE80F0000F00B
:1057700089F80220FFF7D0FB9DE80F0000F078F8D1
:105780000220FFF7C9FB9DE80F0000F076F81FBD6F
:105790007FB5089E002500249DE80F0000F077F8F3
:1057A00019E09DE80F0000F068F80120FFF7B4FB56
:1057B0009DE80F0000F05CF86006040E9DE80F0005
:1057C00000F018F8012801D1601CC4B20120FFF7D5
:1057D000A3FB681CC5B2082DE3DB26B99DE80F00CA
:1057E000FFF7BAFF03E09DE80F00FFF799FF20469F
:1057F00004B070BD0FB5009800690199084010B160
:10580000012004B000BD0020FBE77FB5089C002507
:105810009DE80F0000F053F89DE80F0000F02DF810
:1058200023E00120B0EBD41F04D19DE80F0000F06D
:1058300029F805E0E00918B99DE80F0000F03AF8F2
:105840006006040E0120FFF767FB9DE80F0000F0E3
:105850000FF80120FFF760FB9DE80F0000F00DF846
:105860000120FFF759FB681CC5B2082DD9DB7FBDAD
:105870000FB5DDE9021008830FBD0FB5DDE9021099
:1058800048830FBD0FB5DDE9001008830FBD0FB5CC
:1058900083B00498019002208DF8090000208DF853
:1058A000080001208DF80B0001A90398FBF72EFDDD
:1058B00007B000BD0FB5DDE9001048830FBD0FB57F
:1058C00083B00498019002208DF8090001208DF822
:1058D000080000208DF80A0001208DF80B0001A9B6
:1058E0000398FBF713FD07B000BD1FB59DE80F003F
:1058F000FFF7E5FF9DE80F00FFF7C4FF9DE80F00ED
:10590000FFF7B6FF0220FFF707FB9DE80F00FFF748
:10591000D1FF0220FFF700FB9DE80F00FFF7ADFF6E
:105920001FBD1FB59DE80F00FFF7C9FF9DE80F00E1
:10593000FFF7A3FF9DE80F00FFF7BCFF0220FFF772
:10594000EBFA9DE80F00FFF793FF9DE80F00FFF7CC
:1059500099FF0220FFF7E0FA1FBD1FB500249DE864
:105960000F00FFF78FFF0120FFF7D6FA9DE80F0029
:10597000FFF77EFF0120FFF7CFFA9DE80F00FFF74A
:1059800086FF0AE0601CC4B2FA2C06DD9DE80F0019
:10599000FFF7C7FF012004B010BD9DE80F00FFF71F
:1059A00029FF0028EED19DE80F00FFF766FF0020D9
:1059B000F1E700001CB5FEF758FDFEF7B7FC01F05B
:1059C000BBFD01F06BFB074802210023CA01CDE9B2
:1059D000001005A1074802F0D7FB02F0BDF800BF98
:1059E000FEE70000000000205374617274205461CF
:1059F000736B0000756D00082DE9F04105460E46F9
:105A00001C4807681C480068001D01F07BFE50B967
:105A10001948006890F82C1001208840174909683F
:105A2000814316480160681C38B936B112480168D4
:105A3000091D134801F0AFFE1AE07C190E480068FA
:105A40004460BC4207D20C480168091D0D4800683B
:105A500001F087FE0CE008480168091D0A4800684B
:105A600001F07FFE09480068844201D207480460C3
:105A7000BDE8F0813402002020020020380200201E
:105A8000082B0020280200202402002050020020C1
:105A900010B5044601F08CFE24480068401C2349E0
:105AA00008602348006840B921480460084600683F
:105AB00001280DD100F0BEF90AE01E48006838B98F
:105AC0001B480068C06AE16A884201D8184804602F
:105AD00019480068401C184908600846006860645E
